:020000040800F2
:10000000380A002015020008C3150008D91400089A
:10001000C11500085F0300086D1A00080000000009
:10002000000000000000000000000000D5160008DD
:10003000610300080000000049160008D7160008F8
:100040002F0200082F0200082F0200082F020008CC
:100050002F0200082F0200082F0200082F020008BC
:100060002F0200082F0200082F0200082F020008AC
:100070002F0200082F0200082F0200082F0200089C
:100080002F0200082F0200082F0200082F0200088C
:100090002F0200082F0200082F0200082F0200087C
:1000A0002F0200082F0200082F0200082F0200086C
:1000B0002F0200082F0200082F0200082F0200085C
:1000C0002F0200082F0200082F0200082F0200084C
:1000D0002F020008211A00082F0200082D1A00081C
:1000E0002F0200082F0200082F0200082F0200082C
:1000F0002F0200082F0200082F0200082F0200081C
:100100002F0200082F0200082F0200082F0200080B
:100110002F0200082F0200082F0200083D170008D8
:100120002F0200082F0200082F0200082F020008EB
:1001300000F002F800F05EF80AA090E8000C82449B
:100140008344AAF10107DA4501D100F053F8AFF278
:10015000090EBAE80F0013F0010F18BFFB1A43F0A5
:10016000010318478C190000AC19000010F8013B7E
:100170000A4413F0030408BF10F8014B1D1108BF17
:1001800010F8015B641E05D010F8016B641E01F8C5
:10019000016BF9D1002D15D010F8014B03F00C03C1
:1001A0000C2BA1EB04040ABF10F8013BA4EB831451
:1001B000A4EB032405F1010314F8016B5B1E01F8A5
:1001C000016BF9D5914238BF10F8013BD1D370478C
:1001D0000023002400250026103A28BF78C1FBD850
:1001E000520728BF30C148BF0B6070471FB51FBD05
:1001F00010B510BD00F07AF81146FFF7F7FF01F0D7
:1002000047FC00F098F803B4FFF7F2FF03BC00F0DE
:100210009FF800000948804709480047FEE7FEE7CD
:10022000FEE7FEE7FEE7FEE7FEE7FEE7FEE7FEE7A6
:1002300004480549054A064B704700003917000875
:100240003101000838040020380A00203806002058
:10025000380600204FF000020429C0F0128010F090
:10026000030C00F01B80CCF1040CBCF1020F18BF92
:1002700000F8012BA8BF20F8022BA1EB0C0100F025
:100280000DB85FEAC17C24BF00F8012B00F8012BF8
:1002900048BF00F8012B70474FF0000200B513462D
:1002A00094469646203922BFA0E80C50A0E80C5096
:1002B000B1F12001BFF4F7AF090728BFA0E80C5047
:1002C00048BF0CC05DF804EB890028BF40F8042B40
:1002D00008BF704748BF20F8022B11F0804F18BFAD
:1002E00000F8012B7047704770477047754600F063
:1002F0002BF8AE4605006946534620F007008546B8
:1003000018B020B5FFF794FFBDE820404FF000067D
:100310004FF000074FF000084FF0000B21F00701ED
:10032000AC46ACE8C009ACE8C009ACE8C009ACE830
:10033000C0098D46704710B50446AFF300802046D3
:10034000BDE81040FFF75FBF00487047D8030020AA
:1003500001491820ABBEFEE7260002007047FEE709
:10036000704772B6FEE710B590F8211000220229FE
:1003700005D00421816380F82020012010BD016890
:100380000B6823F00E030B6001680B6823F0010378
:100390000B6090F84030C46B012101FA03F36360F5
:1003A00080F8211080F82020104610BD2DE9F05F64
:1003B00090F821100024022903D004218163012434
:1003C00085E001680A6822F00E020A6001680A6886
:1003D00022F001020A603F4E3E4FB215DFF8F4C032
:1003E000DFF8F090DFF8ECA0DFF8E8B0DFF8E4E049
:1003F0000168783F13011502ACF1640CA9F15009B2
:10040000AAF13C0AABF1280BAEF1140E4FF48018A0
:10041000B14227D9B9420ED0614512D049451DD00D
:10042000514518D0594518D0714501D1424615E0C3
:10043000294EB14201D1012210E0274E1436B142BB
:1004400001D110220AE0244E2836B14206D0224AB9
:100450003C32914201D11A4600E02A461E49091F4A
:100460000A602BE0B94213D0614517D0494522D02C
:1004700051451DD059451DD0714501D142461AE064
:10048000B14202D14FF0807215E0134EB14201D15A
:10049000012210E0104E1436B14201D110220AE0C0
:1004A0000D4E2836B14206D00B4A3C32914201D162
:1004B0001A4600E02A46074980394A60012180F83F
:1004C0002110002180F82010416B01B1884720469F
:1004D000BDE8F09F800002400804024070B5044669
:1004E00000F00AF90546601C02D004480078044474
:1004F00000F002F9401BA042FAD370BD3002002088
:100500002DE9F84FDFF8C891002409F1040A0AF137
:10051000040B23460F270BF1040ED1E00125A54063
:1005200006EA0502AA4276D1DFF8A8C14E68A6EB1A
:100530000C0866452BD00DDC032E34D005DC36B319
:10054000012E19D0022E2FD11BE0112E16D0122E03
:100550002AD119E0B8F5881F19D006DCB8F5803F1C
:1005600015D0B8F5801F1FD111E0B8F5001F0ED0CF
:10057000B8F5041F18D10AE0CB6815E0CB681B1D45
:1005800012E0CB6808330FE0CB680C330CE08B68CB
:100590002BB1012B4FF0080303D0456104E0042385
:1005A00002E0056100E00023FF2A01D8064601E0D1
:1005B00000F104064FEA840501D9A5F12005D6F81B
:1005C000008007FA05FC28EA0C0803FA05F548EA5A
:1005D0000508C6F800804D68ED0070D53E4DAE6947
:1005E00046F00106AE61AD6924F0030605F0010591
:1005F00000953A4D06EB050CDCF80850A607360FBF
:1006000007FA06F825EA0805DFF8D480404503D14B
:100610004FF0000825E052E0DFF8C880404502D1E5
:100620004FF001081DE0DFF8C080404502D14FF0D7
:10063000020816E0DFF8B480404502D14FF003080D
:100640000FE0DFF8AC80404502D14FF0040808E02D
:10065000DFF8A080404502D14FF0050801E04FF0DF
:10066000060808FA06F848EA0508CCF808804D683C
:10067000D9F80060ED034D4601D5164300E09643DE
:100680002E604D68DAF80060AD03554601D516437B
:1006900000E096432E604D68DBF80060ED025D4699
:1006A00001D5164300E096432E604D68DEF80060E9
:1006B000AD02754601D5164300E096432E60641CDA
:1006C0000A681646E2407FF429AFBDE8F88F0000C3
:1006D0000004014000001110001002400000014021
:1006E00000080140000C01400010014000140140CE
:1006F00000180140001C014001488068704700005C
:1007000030020020024881680278114481607047FD
:1007100030020020074810B5016841F01001016067
:10072000032000F075F80F2000F006F800F024F820
:10073000002010BD0020024070B50D4D04464FF45E
:100740007A712878B1FBF0F00A490968B1FBF0F042
:1007500000F0ECFA48B9102C07D200222146501EB6
:1007600000F036F800206C6070BD012070BD000004
:10077000300200203C0200200C4808B5816941F09D
:1007800001018161816901F001010091C16941F0BC
:100790008051C161C06900F08050009004484168F8
:1007A00021F0E06141F00071416008BD001002409D
:1007B00000000140002809DB00F01F0201219140E8
:1007C0004009800000F1E020C0F8001170470000EF
:1007D000F0B40E4B1B680C46C3F30223C3F10705AC
:1007E000042D00D90425191D072901D2002300E09A
:1007F000DB1E012606FA05F1491E214099409E4064
:10080000761E16403143F0BC01F031B90CED00E02A
:10081000064900F0070208684FF6FF03184040EA57
:100820000220034A10430860704700000CED00E00E
:100830000000FA052DE9F0470F46050061D0434E50
:10084000306800F00700B84209D2306820F0070095
:1008500038433060306800F00700B84251D1286852
:100860003B4C810712D5400703D5606840F4E06037
:1008700060602878000703D5606840F460506060CD
:100880006068A96820F0F000084360602878C0071D
:1008900028D06868012810D02168022810D0890764
:1008A00000292EDA616821F0030101436160FFF73E
:1008B00023FF804641F288390DE021688903EFE784
:1008C0008901EDE7FFF718FFA0EB0801494502D9C0
:1008D0000320BDE8F0876068696800F00C00B0EBA9
:1008E000810FEFD1306800F00700B8420BD93068B3
:1008F00020F0070038433060306800F00700B8424D
:1009000001D00120E5E72878400705D56068E9684F
:1009100020F4E060084360602878000706D560682E
:10092000296920F4605040EAC100606000F038F8A6
:100930006168084AC1F30311515CC8400649086068
:1009400006480068FFF7F8FE0020C2E700200240DA
:1009500000100240D81A00083C0200203402002097
:100960000448054900684968044AC1F30221515C02
:10097000C84070473C02002000100240E81A0008FE
:100980000448054900684968044AC1F3C221515C22
:10099000C84070473C02002000100240E81A0008DE
:1009A00012A185B00FC98DE80F0014A0144A006889
:1009B00004905168134801F00C03042B10D0082B4D
:1009C0000ED1C1F38343C9031DF803000AD5516852
:1009D00004AAC1F34041515C0A4A5043B0FBF1F014
:1009E00005B0704708494843FAE7000002030405D0
:1009F000060708090A0B0C0D0E0F1010010200006B
:100A00000010024000127A0000093D002DE9F84F65
:100A1000040070D02078C04DC00749D06868C0F38A
:100A20008100012807D06868C0F38100022809D13D
:100A30006868C00306D52868800339D56068002837
:100A4000E7D035E06068B0F5803F0BD010B1B0F56D
:100A5000A02F11D0286820F480302860286820F466
:100A6000802002E0286840F480302860606890B1FF
:100A7000FFF742FE06460AE0286840F4802028601E
:100A8000F0E700BFFFF738FE801B642873D82868A2
:100A90008003F7D50CE0FFF72FFE064605E000BF08
:100AA000FFF72AFE801B6428F0D828688003F7D45B
:100AB00020789A4E80074FF001094FF0000839D591
:100AC000686810F00C0F07D06868C0F38100022836
:100AD00009D16868C00306D42868800714D5206946
:100AE000012808D110E02069B0B1C6F80090FFF7E6
:100AF00003FE074605E00AE1FFF7FEFDC01B0228E2
:100B0000C4D828688007F7D52868616920F0F80004
:100B100040EAC10028600DE0C6F80080FFF7ECFD58
:100B2000074604E0FFF7E8FDC01B022823D8286829
:100B30008007F7D4207800072CD57948A169D9B16E
:100B4000C0F80090FFF7D8FD074604E0FFF7D4FD9A
:100B5000C01B02280FD8686A8007F7D571484FF488
:100B6000FA510068B0FBF1F0009000BF0098411E00
:100B70000091FAD20EE080E0C0F80080FFF7BCFDE3
:100B8000074604E0FFF7B8FDC01B022875D8686A65
:100B90008007F7D42078400760D5E8690027C000B7
:100BA00008D4E86940F08050E861E869012700F066
:100BB000805000905C480168C90513D401688346E1
:100BC00041F480710160FFF797FD824606E000BFA7
:100BD000FFF792FDA0EB0A0064284ED8DBF8000076
:100BE000C005F5D5E06801280AD008B1052813D062
:100BF000286A20F001002862286A20F0040002E040
:100C0000286A40F001002862E06841F2883B98B110
:100C1000FFF772FD82460BE0286A40F0040028626C
:100C2000EEE700BFFFF768FDA0EB0A0159455AD86F
:100C3000286A8007F6D50CE0FFF75EFD824605E0E6
:100C4000FFF75AFDA0EB0A0159454CD8286A8007E6
:100C5000F6D41FB1E86920F08050E861E06988B3FC
:100C60006968C1F38101022944D00228C6F8608076
:100C700004D0FFF741FD044638E034E0FFF73CFDC7
:100C8000074604E0FFF738FDC01B02282BD8286870
:100C90008001F7D4206AB0F5803F05D16868A1686B
:100CA00020F4003008436860D4E90801084369680B
:100CB00021F4741108436860C6F86090FFF71CFDCA
:100CC000044606E025E000BFFFF716FD001B0228E2
:100CD00009D828688001F7D51BE000BFFFF70CFD9D
:100CE000001B022802D90320BDE8F88F2868800184
:100CF000F4D40EE00128F7D06868226A00F480314D
:100D0000914204D1616A00F47010884201D0012040
:100D1000EAE70020E8E7000000100240000042423D
:100D2000800442423C0200200070004010B5401E8A
:100D3000B0F1807F01D3012010BD4FF0E02460614D
:100D40000F21601700F093FE0020A06107202061B2
:100D5000002010BD7047704770B590F83C20012A04
:100D60002CD0012480F83C40022280F83D2003680A
:100D70005A689D6822F070060A6832435A60104B28
:100D800002689A420ED00F4B9A420BD0B2F1804FBC
:100D900008D00D4B9A4205D00C4B9A4202D00C4B16
:100DA0009A4204D1496825F080031943916080F884
:100DB0003D40002180F83C10084670BD022070BD07
:100DC000002C0140003401400004004000080040B5
:100DD000000C004010B5040003D094F83D0010B1A1
:100DE00007E0012010BD002084F83C00204600F000
:100DF0001FF8022084F83D00211D206800F0A4FCAB
:100E0000012084F8460084F83E0084F83F0084F80E
:100E1000400084F8410084F8420084F8430084F8DC
:100E2000440084F8450084F83D00002010BD000017
:100E300008B500680B49884212D10B48C16941F0DE
:100E40002001C161C069002200F020000090012152
:100E50003720FFF7BDFCBDE808403720FFF7AABCEC
:100E600008BD0000001400400010024090F83D1042
:100E7000012901D001207047022180F83D1001684E
:100E8000CA6842F00102CA6000680E4988420ED06A
:100E90000D4988420BD0B0F1804F08D00B498842F1
:100EA00005D00B49884202D00A49884204D18168A2
:100EB00001F00701062903D0016841F0010101603A
:100EC00000207047002C0140003401400004004025
:100ED00000080040000C0040704770B504460068F0
:100EE00001694FF00005C943890715D4C168C9439A
:100EF000890711D4E91E01610120207720688069EB
:100F00008007204602D0FFF7E7FF04E000F098F8E2
:100F1000204600F096F8257720680169C943490703
:100F200017D4C168C943490713D46FF004010161A4
:100F3000022020772068806910F4407F204602D08C
:100F4000FFF7CAFF04E000F07BF8204600F079F8D4
:100F5000257720680169C943090716D4C168C943C8
:100F6000090712D46FF0080101610420207720687E
:100F7000C0698007204602D0FFF7AEFF04E000F012
:100F80005FF8204600F05DF8257720680169C943C5
:100F9000C90617D4C168C943C90613D46FF010013C
:100FA0000161082020772068C06910F4407F204646
:100FB00002D0FFF791FF04E000F042F8204600F075
:100FC00040F8257720680169C943C90708D1C1687D
:100FD000C943C90704D1891E0161204600F032F8D7
:100FE00020680169C943090609D4C168C9430906D3
:100FF00005D46FF0800101612046FFF7ABFE206849
:101000000169C943490609D4C168C943490605D4E1
:101010006FF040010161204600F044F8206801694A
:10102000C94389060BD4C168C943890607D46FF048
:10103000200101612046BDE87040FFF78CBE70BD05
:10104000704770470E4910B5884218D10D4C4FF6C5
:10105000FF732078012806D0BDE810400F220AA1B6
:101060000D4800F0DFB90D480D4902780A4800F03C
:10107000D9F9C8210A48FFF7EDF80020207010BD0B
:10108000400200202F02002048656C6C6F20576FD3
:10109000726C64210D0A0000500300202D02002014
:1010A000880200207047704770470000F8B502685A
:1010B00004461068D168536910F00F0F4FF0000517
:1010C00053D003F0010601F4907737435FD0C20795
:1010D00005D0CA0503D5226C42F001022264420702
:1010E00005D5DA0703D0226C42F00202226482079F
:1010F00005D5DA0703D0226C42F00402226402070D
:1011000007D501F02002324303D0226C42F00802DE
:101110002264226C002A34D0800604D5880602D5C9
:10112000204600F077FB20684069216CC0F38010F6
:10113000090700D430B3204600F054FB2068416911
:1011400049061BD5416921F040014161A06BA8B15E
:1011500058494163A06BFFF729F9002811D0A06B13
:10116000416B01B0BDE8F040084783060FD58B0600
:101170000DD52046BDE8F84000F04CBB2046FFF7F7
:1011800093FFF8BD2046FFF78FFF2564F8BD266B5F
:101190002023012E52D1C60650D5CE064ED510685A
:1011A00050680090506940062AD5A16B08684068D5
:1011B0000004000CEAD0A68D8642E7D9E085886954
:1011C000202818D0D06820F48070D0602068416951
:1011D00021F0010141612068416921F04001416134
:1011E00084F83E3025632068C16821F01001C16099
:1011F000A06BFFF7B8F8A08DE18D401A81B219E01D
:10120000A08DE18D401A81B2E08D0028BED000296A
:10121000BCD0D06820F49070D0602068426922F081
:101220000102426184F83E3025632068C26822F0E2
:101230001002C2602046FFF736FFF8BD05062BD529
:101240000D0629D594F83D002128F6D1A068B0F507
:10125000805F01D12069B0B1206A411C2162216800
:1012600000784860E08C401E0004000CE084E4D16B
:101270002068C16821F08001C1602068C16841F028
:101280004001C160F8BD206A0088C0F308005060CA
:10129000206A801C2062E5E74006F3D54806F1D5B8
:1012A000D168204621F04001D16084F83D3000F043
:1012B00012F9F8BDD517000870B5040004D094F8F1
:1012C0003D00002510B106E0012070BD84F83C50BF
:1012D000204600F023F8242084F83D002068C168EF
:1012E00021F40051C160204600F0F0FA2068016945
:1012F00021F4904101612068416921F02A01416196
:101300002068C16841F40051C1602564202084F840
:101310003D0084F83E00002070BD000070B586B02E
:101320000024009401940294039403682E482D4EE7
:10133000022103220515B34226D1836943F4804379
:101340008361836903F480430493836943F0040356
:1013500083618069254E00F0040004900802CDE905
:101360000001039269463046FFF7CAF8CDE9005400
:10137000694630460294FFF7C3F800221146252043
:10138000FFF726FA252028E0194EB34227D1C3697A
:1013900043F48023C361C36903F480230493836906
:1013A00043F0080383618069CDE9005100F0080033
:1013B000CDE903200F4D69462846FFF7A1F8E81450
:1013C000CDE90004694628460294FFF799F8002207
:1013D00011462720FFF7FCF92720FFF7EBF906B0AD
:1013E00070BD0000003801400010024000080140BC
:1013F00000480040000C014090F83E30202B0ED1F8
:1014000059B152B190F83C30012B08D0012380F83B
:101410003C300023036300F0B5BA0120704702207E
:10142000704770472DE9F843044690F83D001F4689
:1014300016460D4620284CD1C5B1BEB194F83C00EB
:10144000012846D0012084F83C004FF00008C4F881
:101450004080212084F83D00FFF74EF9A6848146A4
:10146000E684A068B0F5805F03D004E00120BDE809
:10147000F883206928B12E465FF0000584F83C808F
:101480000EE00026FAE78021204600F096FAA0B987
:10149000AEB116F8010B21684860E08C401EE08474
:1014A000E08C4B464FF0000200970028EBD14FF044
:1014B0004001204600F081FA30B10320D7E735F82B
:1014C000020BC0F30800E6E7202084F83D0000206E
:1014D000CDE70220CBE77047FEE70000094808B5DA
:1014E000816941F008018161816901F00801009181
:1014F000816941F004018161806900F0040000907D
:1015000008BD0000001002401CB500240F480094E4
:101510000D490194016041F61F41C0E9011441F2F7
:1015200087318461C160FFF755FC08B1FEF719FFF0
:101530000094694605480194FFF70EFC002801D08D
:10154000FEF70FFF1CBD0000001400404002002009
:101550000C4810B50A4901604FF4E13141600021A7
:1015600081600C22C160C0E904128161C161FFF792
:10157000A3FE002803D0BDE81040FEF7F2BE10BD68
:1015800000380140500300200C4810B50A490160A2
:101590004FF4E1314160002181600C22C160C0E95B
:1015A00004128161C161FFF787FE002803D0BDE806
:1015B0001040FEF7D6BE10BD004800409403002046
:1015C000FEE7FEE72DE9F0414FF4FA6700243846C4
:1015D000FEF784FF1A4E4FF6FF7506E031192B46D1
:1015E00001221848FFF71EFF641C305D0028F5D16A
:1015F0003846FEF773FF124E00247F3606E031199D
:101600002B4601220F48FFF70DFF641C305D0028B8
:10161000F5D13846FEF762FF094E0024EA3606E0AF
:1016200031192B4601220748FFF7FCFE641C305D90
:101630000028F5D13846BDE8F041FEF74FBF000065
:101640000800002094030020704700002DE9F041BD
:10165000064600241D4F4FF6FF7506E039192B464C
:1016600001221B48FFF7DEFE641C385D0028F5D11F
:10167000164F0024663706E039192B46012214481C
:10168000FFF7D0FE641C385D0028F5D1002406E089
:1016900031192B4601220E48FFF7C4FE641C305D51
:1016A0000028F5D1094E0024763606E031192B4684
:1016B00001220748FFF7B6FE641C305D0028F5D113
:1016C000BDE8F0414FF47A70FEF708BF3C010020FE
:1016D000940300207047FFF715B830B58FB028216C
:1016E0006846FEF7D9FD14210AA8FEF7D5FD0121B1
:1016F0000804CDE900100024029402250491CDE9EC
:1017000007504FF4E01009906846FFF77FF908B1E1
:1017100072B6FEE70F20CDE90A054FF48060CDE9EF
:101720000C4002210AA80E94FFF784F8002801D08B
:1017300072B6FEE70FB030BD704700000148FFF7FA
:10174000CCBB000040020020F0B502681C4B1D4DD0
:101750001D4E1E4F1E4C4FF0804C984209D0A042A7
:1017600007D0604505D0A84203D0B04201D0B842AE
:1017700004D122F0700E4A6842EA0E02984209D063
:10178000A04207D0604505D0A84203D0B04201D0A6
:10179000B84203D122F44075CA682A434D6922F049
:1017A00080022A4302608A68C2620A6882629842A2
:1017B00001D0A04201D10969016301214161F0BD5D
:1017C000002C01400004004000080040000C0040D4
:1017D0000034014010B5406A0021C185C184FFF783
:1017E00063FC10BD0168CA6822F49072CA60016887
:1017F0004A6922F001024A61016B012904D10168A2
:10180000CA6822F01002CA60202180F83E10002130
:101810000163704708B590F83E10222901D00220DC
:1018200008BD82684FF480539A4201D1016921B109
:10183000816A9A421BD04AB10AE00268816A526802
:10184000C2F308020A80816A891C08E0026972B149
:101850000268526802F07F020A70816A491C816244
:10186000C18D491E0904090CC18503D019E0026825
:101870005268F1E70168CA6822F02002CA60016874
:10188000CA6822F48072CA6001684A6922F00102C3
:101890004A61202180F83E10016B012903D0FFF737
:1018A000C0FD002008BD002101630168CA6822F064
:1018B0001002CA6001680A68D20602D50A6849683F
:1018C0000091818DFFF7EFFBEBE7000070B5044658
:1018D00000680169E26821F4405111430161216906
:1018E000A0680843616908432168CA6841F20C6333
:1018F0009A430243CA6020684169A26921F4407199
:10190000114341611E492068884202D1FFF738F82F
:1019100001E0FFF725F800EBC00101EB0012606861
:1019200064218000B2FBF0F3B3FBF1F36FF0180613
:101930007343B2FBF0F5B2FBF0F605EB83053223FF
:1019400003EB0515B5FBF1F5B6FBF1F605F0F00577
:1019500005EB0615B2FBF0F6B2FBF0F0B0FBF1F0D0
:101960006FF01802504306EB800003EB0010B0FB51
:10197000F1F0216800F00F002844886070BD00007D
:101980000038014081628285C285002101642222E3
:1019900080F83E2080F83C100168CA6842F48072EA
:1019A000CA6001684A6942F001024A610068C16880
:1019B00041F02001C160002070472DE9F0419846B8
:1019C00017460E460446069D1DE0681C1BD02DB12F
:1019D000FEF792FEA0EB0800A84214D92068C16867
:1019E00021F4D071C1602068416921F00101416199
:1019F000202084F83D0084F83E00002084F83C005C
:101A00000320BDE8F0812068006836EA000004D0B9
:101A10000020B842D9D00020F3E70120F9E7000008
:101A20000148FFF743BB00005003002010B50C48ED
:101A3000FFF73CFB0B480178C82901D10021017058
:101A4000094BC9B242785A54491C01700121817076
:101A50000A460449BDE81040491C0148FFF7CCBCC8
:101A6000940300202D02002088020020FEE70907D1
:101A7000090E002804DB00F1E02080F80014704714
:101A800000F00F0000F1E02080F8141D7047000006
:101A9000FEF740FEFFF721FEFFF720FDFFF758FDA0
:101AA000FFF772FDFFF730FD0748FFF7DFF901226E
:101AB00006490748FFF7A0FCFFF784FD05A105A034
:101AC000FFF7C4FDFEE70000400200202E020020C8
:101AD00094030020363000000000000000000000E9
:101AE00001020304060708090000000001020304C4
:101AF000101B000800000020400200006C010008DC
:101B0000C41C000840020020F8070000D0010008B3
:101B10001019222C312C300D0A0041542B4D5154F8
:101B200054555345524346473D3017101F224E55DA
:101B30004C4C222C22536166655F6472697665267F
:101B400061315A6349566E7934474F19100A63362A
:101B50006334346661646602102665613130326137
:101B60003431366666373738373435323239643196
:101B70006538393531653336616631373338640558
:101B80001010636433316337623765343064222C5C
:101B900030028322227F1009434C49454E54494468
:101BA0008092226C822E8320347C7365637572650B
:101BB0006D6F64653D325C2C7369676E6D6574682A
:101BC0006F643D686D61637368613235365C2C7497
:101BD000696D657374616D703D3136358FA008365F
:101BE00032383435307C6BE0044F4E4E671010694C
:101BF0006F742D61732D6D7174742E636E2D4E1480
:101C0000136E676861692E616C6979756E63732EF6
:101C1000636F6D3184063838332C313420045055CD
:101C200042B090062F7379732F4E822FB5141B2F5D
:101C30007468696E672F6576656E742F70726F7049
:101C4000657274792F706F737446100F7B5C226914
:101C5000645C223A323133303138AF100C355C2CB1
:101C60005C22706172616D7317120020200A486552
:101C70006172745261746510227D1F10087665725E
:101C800073696F6E3720085C22312E305C22344538
:101C90000931143171322E71622E71222E71D404E9
:101CA0005C227DF361BF0115BB2008757365722F3F
:101CB0006765AA120001120104531000010004001C
:041CC00024F4000008
:0400000508000131BD
:00000001FF
